:020000040800F2
:1000000020080010E9020008F1020008F3020008CD
:10001000F5020008F7020008F902000800000000DD
:10002000000000000000000000000000290200089D
:10003000FD02000800000000850200084D070008CE
:100040000303000803030008030300080303000878
:100050000303000803030008030300080303000868
:100060000303000803030008030300080303000858
:100070000303000803030008030300080303000848
:100080000303000803030008030300080303000838
:100090000303000803030008030300080303000828
:1000A0000303000803030008030300080303000818
:1000B0000303000803030008030300080303000808
:1000C00003030008030300080303000803030008F8
:1000D00003030008030300080303000803030008E8
:1000E00003030008030300080303000803030008D8
:1000F00003030008030300080303000803030008C8
:1001000003030008030300080303000803030008B7
:1001100003030008030300080303000803030008A7
:100120000303000803030008030300080303000897
:100130000303000803030008030300080303000887
:100140000303000803030008030300080303000877
:100150000303000803030008030300080303000867
:100160000303000803030008030300080303000857
:100170000303000803030008030300080303000847
:10018000030300080303000800F002F800F03CF845
:100190000AA090E8000C82448344AAF10107DA45E2
:1001A00001D100F031F8AFF2090EBAE80F0013F0F8
:1001B000010F18BFFB1A43F0010318471C2300006E
:1001C0004C230000103A24BF78C878C1FAD85207EF
:1001D00024BF30C830C144BF04680C6070470000C1
:1001E0000023002400250026103A28BF78C1FBD840
:1001F000520728BF30C148BF0B6070471FB502F0DF
:1002000065F91FBD10B510BD00F059F91146FFF793
:10021000F5FF00F0E9FA00F077F903B4FFF7F2FF19
:1002200003BC00F07FF900002C4B19680868B0E8A7
:10023000F04F80F30988BFF36F8F4FF0000080F319
:10024000118870470000000008480068006880F3CB
:1002500008884FF0000080F3148862B661B6BFF3DF
:100260004F8FBFF36F8F00DF00BF00BF08ED00E0CE
:10027000DFF80C00016841F470010160704700BFB5
:1002800088ED00E0EFF30980BFF36F8F134B1A681E
:100290001EF0100F08BF20ED108A20E9F04F10600B
:1002A00009B44FF0500080F31188BFF34F8FBFF3B4
:1002B0006F8F01F0A3FA4FF0000080F3118809BCA2
:1002C00019680868B0E8F04F1EF0100F08BFB0ECD6
:1002D000108A80F30988BFF36F8F704714000010F5
:1002E000EFF3058070470000094880470948004740
:1002F000FEE7FEE7FEE7FEE7FEE7FEE7FEE7FEE7D6
:10030000FEE7FEE704480549054A064B7047000032
:100310008107000889010008200200102008001051
:100320002004001020040010032A40F2308010F056
:10033000030C00F0158011F8013BBCF1020F624480
:1003400098BF11F801CB00F8013B38BF11F8013B11
:10035000A2F1040298BF00F801CB38BF00F8013BBE
:1003600011F0030300F05780083AC0F0088051F8FC
:10037000043B083A51F804CBA0E80810F5E7121D39
:100380005CBF51F8043B40F8043BAFF30080D20758
:1003900024BF11F8013B11F801CB48BF11F8012B24
:1003A00024BF00F8013B00F801CB48BF00F8012B47
:1003B000704702F0FF0343EA032242EA024200F0E0
:1003C0005EB84FF0000200B51346944696462039B9
:1003D00022BFA0E80C50A0E80C50B1F12001BFF4FE
:1003E000F7AF090728BFA0E80C5048BF0CC05DF864
:1003F00004EB890028BF40F8042B08BF704748BFB2
:1004000020F8022B11F0804F18BF00F8012B704725
:1004100070477047704710B5203AC0F00B80B1E8C4
:100420001850203AA0E81850B1E81850A0E8185029
:10043000BFF4F5AF5FEA027C24BFB1E81850A0E832
:10044000185044BF18C918C0BDE810405FEA827C4C
:1004500024BF51F8043B40F8043B08BF7047D20763
:1004600028BF31F8023B48BF11F8012B28BF20F804
:10047000023B48BF00F8012B70474FF000020429EF
:10048000C0F0128010F0030C3FF49DAFCCF1040CCF
:10049000BCF1020F18BF00F8012BA8BF20F8022BF7
:1004A000A1EB0C01FFF78FBF5FEAC17C24BF00F80E
:1004B000012B00F8012B48BF00F8012B704775464F
:1004C00000F02CF8AE4605006946534620F00700C0
:1004D000854618B020B5FFF715FFBDE820404FF066
:1004E00000064FF000074FF000084FF0000B21F01E
:1004F0000701AC46ACE8C009ACE8C009ACE8C009EB
:10050000ACE8C0098D46704710B50446AFF30080D3
:100510002046BDE81040FFF780BE0000004870474D
:10052000C001001001491820ABBEFEE72600020002
:100530007047F0B50A4600210023002400BF3DE0CB
:10054000012505FA01F3156805EA03049C4234D13C
:1005500005684F000326BE40B543056015794E007F
:10056000B5400668354305601579012D02D015792F
:10057000022D16D185684F000326BE40B543856025
:1005800055794E00B540866835438560456801263B
:100590008E40B5434560456896798E40B6B2354386
:1005A0004560C5684F000326BE40B543C560D57998
:1005B0004E00B540C6683543C560491C1029BFD3FD
:1005C000F0BD418370470183704700001CB50121D5
:1005D0000C2000F035F80520009001208DF8040073
:1005E00000208DF8060003208DF8050001208DF80D
:1005F000070069461048FFF79CFF08200090012083
:100600008DF8040000208DF8060003208DF8050009
:1006100001208DF8070069460848FFF78AFF01218D
:100620000548FFF7D0FF04210348FFF7CCFF08215E
:100630000248FFF7C8FF1CBD00080240000C024042
:1006400029B1064A12680243044B1A6004E0034AC7
:1006500012688243014B1A60704700003038024034
:100660000CB50020019000903448006840F48030C0
:100670003249086000BF3148006800F40030009043
:100680000198401C0190009818B90198B0F5A04F4E
:10069000F1D12A48006800F4003010B10120009028
:1006A00001E0002000900098012846D12348403006
:1006B000006840F0805021494031086020480068BF
:1006C00040F440401E4908601C48083000681B493F
:1006D000083108600846006840F400400860084699
:1006E000006840F4A05008601648091F0860081F01
:1006F000006840F08070091F086000BF0F48006864
:1007000000F000700028F9D040F205700E49086032
:100710000A480830006820F00300084908310860E2
:100720000846006840F00200086000BF0348083037
:10073000006800F00C000828F8D10CBD0038024019
:100740000070004019544007003C024010B500BF43
:10075000502080F31188BFF34F8FBFF36F8F00BF1E
:1007600001F076FC18B14FF080500449086000BFDA
:10077000002080F3118800BF10BD000004ED00E0F0
:1007800010B51548006840F470001349086013481C
:10079000006840F001001149086000200F4908314D
:1007A00008600E4800680E4908400C4908600D4872
:1007B000091D0860081F006820F48020091F0860D8
:1007C000002006490C310860FFF74AFF4FF0006037
:1007D00001498039086010BD88ED00E00038024012
:1007E000FFFFF6FE103000241CB5FFF7EFFE0020DF
:1007F000012103464A02CDE9001004A1064801F098
:10080000E1FB00F0A9FF00BFFEE700005461736B3D
:10081000204C656400000000AD1600082DE9F04191
:1008200005460E461C4807681C480068001D00F07D
:1008300093FD50B91948006890F82C1001208840A9
:1008400017490968814316480160681C38B936B1F8
:1008500012480168091D134800F0BCFD1AE07C191C
:100860000E4800684460BC4207D20C480168091D6C
:100870000D48006800F094FD0CE008480168091D6F
:100880000A48006800F08CFD09480068844201D2E3
:1008900007480460BDE8F081280000101400001033
:1008A0002C000010840100101C0000101800001023
:1008B0004400001010B5044600F098FD244800687C
:1008C000401C234908602348006840B9214804605F
:1008D0000846006801280DD100F0D6F90AE01E484C
:1008E000006838B91B480068C06AE16A884201D8CC
:1008F0001848046019480068401C184908600846F8
:100900000068206494F82C1001208840144909687C
:10091000084313490860E16A01EB8101114A02EBC7
:100920008100211D00F056FD00F08AFD0A48006894
:1009300068B108480068C06AE16A884207D24FF08F
:10094000805009490860BFF34F8FBFF36F8F10BD10
:1009500024000010140000103000001040000010AF
:100960002C000010D000001004ED00E010B500F0E5
:100970003DFD10480068D0B90F4800F001FD0F4858
:1009800000F0FEFC0C480E4908600C480D49086058
:1009900000220C210A2001F02BF8064908600846C5
:1009A000006820B108A10348006800F009FE00F0CB
:1009B00047FD10BD5800001098010010AC01001058
:1009C0005000001054000010546D725100000000DF
:1009D00010B516E000F00AFD0C48C068C468201D80
:1009E00000F0BAFC0A480068401E0949086009483E
:1009F0000068401E0749086000F022FD204600F014
:100A00005FF8044800680028E4D110BD70010010B0
:100A1000240000102000001070B504460D46206C24
:100A200070B1216CE0680144E160D4E902108842B1
:100A300001D32168E1602846226CE168FFF774FC6D
:100A400070BD2DE9F04104460F4615464FF00008F1
:100A5000A66B206C48B9206800282CD1A06801F052
:100A60009BFB80460020A06025E07DB93946226CC2
:100A70006068FFF759FC216C606808446060D4E945
:100A80000101884217D32068606014E03946226C67
:100A9000E068FFF749FC216CE068411AE1602168D9
:100AA000E068884203D2216CA068411AE160022DFF
:100AB00001D106B1761E701CA0634046BDE8F081EE
:100AC00010B50446206B00F0D9FC204600F0D6FC9F
:100AD00010BD00000146084A126812680AB90122D6
:100AE00000E000220A600A6822B9034A1268D2684C
:100AF000106800E0002070475000001030B54FF43F
:100B00009633174800F007042CB1C01D20F00700F1
:100B1000134C041B1B1B0246124C22600024114D77
:100B20006C60D018083820F007000F4C20600024BB
:100B30000D4D2D686C600C4D2D682C601146441ACB
:100B40004C60094C24680C60084D4C682C60084DC2
:100B50004C682C604FF00044064D2C6030BD000006
:100B600000000020700000107800001080000010CD
:100B70007C0000108C00001000BFFFF729FF064822
:100B800000680128F9D94FF0805004490860BFF38C
:100B90004F8FBFF36F8FF0E7D000001004ED00E03F
:100BA0002DE9F04106460D4617469846069C0DB9BC
:100BB000246000E02760E66325640121204600F000
:100BC00055FF84F84C80BDE8F0812DE9F05F824646
:100BD0000E4690469B460A9F0C9C4FEA8801A52230
:100BE000206BFFF7E6FBA8F10100216B01EB800908
:100BF00029F0070909F0070008B9012000E00020EA
:100C000050B900BF502080F31188BFF34F8FBFF35E
:100C10006F8F00BF00BFFEE786B1002507E0715D62
:100C200004F134004155705D00B902E06D1C0A2DDD
:100C3000F5D300BF00213D20015502E0002084F8DB
:100C40003400052F00D30427E762A7640020E06486
:100C5000201D00F0A2FB04F1180000F09EFB2461AF
:100C6000C7F10500A06164620020206584F854008B
:100C70005A465146484600F059FB20600B9808B18F
:100C80000B980460BDE8F09F10B5002407E004EB6A
:100C900084010F4A02EB810000F072FB641C052CFA
:100CA000F5D30C4800F06CFB0B4800F069FB0B48D7
:100CB00000F066FB0A4800F063FB0A4800F060FBA6
:100CC00004480949086004480849086010BD00004C
:100CD000D000001034010010480100105C01001029
:100CE0007001001084010010180000101C0000109A
:100CF00010B50146164800E0006803688B42FBD33C
:100D00000246436813448B4204D143684C68234431
:100D1000436001460A464B6813440468A34211D15C
:100D20000C4C03682468A34208D04B6804686468CC
:100D300023444B6003681B680B6005E0054B1B6890
:100D40000B6001E003680B60884200D0016010BDB9
:100D500070000010780000102DE9F04104460D46A7
:100D600016461F464FF0000865602461B5420CD856
:100D7000F01BA169884202D34FF0010811E0211D48
:100D80000948006800F00CFB0BE0BE4204D2BD42F3
:100D900002D34FF0010804E0211D0448006800F070
:100DA000FFFA4046BDE8F0815400001050000010EA
:100DB00070B5054600F01AFBA86B08B9012400E0E5
:100DC000002400F03DFB204670BD70B5054600F0E4
:100DD0000DFBA86BE96B884201D1012400E00024DF
:100DE00000F02EFB204670BDF8B505460F461A48A8
:100DF0000068C068C468201D00F0AEFA94F82800AE
:100E000000F00400E8B1A06941192B463A4620469B
:100E1000FFF7A2FFD8B1002003462A460146009002
:100E2000204601F011FB064656B900BF502080F362
:100E30001188BFF34F8FBFF36F8F00BF00BFFEE776
:100E400005E094F8280020F0010084F828002046EE
:100E5000216A8847F8BD00005000001070B586B0C8
:100E60008BE003980028FBDB059C606908B9012032
:100E700000E0002010B9201D00F06EFA02A800F07A
:100E8000DBF8054603980A2875D2DFE800F009056B
:100E90000739416306083A4200BF00BF00BF00BFE8
:100EA00094F8280040F0010084F828000498A26912
:100EB000811803462A462046FFF74EFFF8B1204628
:100EC000216A884794F8280000F00400B8B1002097
:100ED00000900498A169421800231946204601F0A9
:100EE000B3FA064656B900BF502080F31188BFF30D
:100EF0004F8FBFF36F8F00BF00BFFEE700BF3BE027
:100F000000BF94F8280020F0010084F8280033E0A6
:100F100000BF94F8280040F0010084F828000498ED
:100F2000A061A06908B1012000E0002050B900BF15
:100F3000502080F31188BFF34F8FBFF36F8F00BF36
:100F400000BFFEE7A06941192B462A462046FFF75D
:100F500003FF11E094F8280000F0020018B92046C1
:100F600000F08CFA05E094F8280020F0010084F8E5
:100F7000280001E0FFE700BF00BF002203A90448EA
:100F8000006800F023FF00287FF46BAF06B070BD4F
:100F900058000010F8B505460C4600F027FC6846DE
:100FA00000F04AF80646009820BB44B9B54206D87E
:100FB00001F09CF931462846FFF716FF1CE03CB1D2
:100FC0000E480068006808B9012000E000200446CF
:100FD000A91B22460A48006800F008FB01F086F9C8
:100FE00050B94FF0805007490860BFF34F8FBFF3EF
:100FF0006F8F01E001F07AF9F8BD00005400001095
:101000005800001004ED00E009480068006808B9C5
:10101000012000E0002020B14FF0FF3005490860BA
:1010200005E003480068C06800680249086070472E
:10103000180000104400001070B5044601F002F8DA
:10104000054607480068854204D200F00BF80120ED
:10105000206001E00020206001480560284670BD46
:10106000600000102DE9F84334E025480068C068AE
:10107000056823480068C068C468201D00F06CF94A
:101080002046216A884794F8280000F0040008B33D
:10109000A0694619AE4207D966602461211D18482F
:1010A000006800F07DF915E0002003462A4601465D
:1010B0000090204601F0C8F9074657B900BF5020FC
:1010C00080F31188BFF34F8FBFF36F8F00BF00BF56
:1010D000FEE700BF0A480068006808B9012000E088
:1010E00000200028C1D00648D0F8008005480068DC
:1010F000034908600348C0F80080BDE8F883000099
:1011000050000010540000100E480068401C08B940
:10111000012000E0002050B900BF502080F311886A
:10112000BFF34F8FBFF36F8F00BF00BFFEE700BF5D
:10113000502080F31188BFF34F8FBFF36F8F00BF34
:1011400000BFFEE76400001008B500BF6846FFF767
:10115000C1FC044620460099FFF71CFFFFF77EFE06
:10116000F4E770B5044600F041F994F9455010E0F9
:10117000606A08B9012000E0002038B904F12400B9
:1011800001F068F818B100F0A5FA00E003E0681E6D
:1011900045B2002DECDC00BFFF2084F8450000F0D4
:1011A0004FF900F023F994F9445010E0206908B990
:1011B000012000E0002048B904F1100001F04AF8D5
:1011C00008B100F087FA681E45B200E001E0002D8A
:1011D000ECDC00BFFF2084F8440000F031F970BD62
:1011E0002DE9F04104464FF0000800F0FFFA4948AD
:1011F000006808B9FFF782FC4748006820400028D3
:1012000070D1D4B1083404F00700B0B104F0070085
:10121000C0F10800044404F0070008B9012000E010
:10122000002050B900BF502080F31188BFF34F8FCA
:10123000BFF36F8F00BF00BFFEE7002C52D03748CE
:10124000006884424ED8364E3046056801E02E468E
:101250002D686868A04202D228680028F7D12D487E
:10126000006885423ED0306800F108082868306088
:101270006868001B102819D92F1907F0070008B952
:10128000012000E0002050B900BF502080F31188F9
:10129000BFF34F8FBFF36F8F00BF00BFFEE76868DB
:1012A000001B78606C603846FFF722FD1B496868B8
:1012B0000968081A19490860084600681949096848
:1012C000884203D2154800681649086012496868C8
:1012D0000968084368600020286013480068401CC3
:1012E0001149086001F002F808F0070008B9012070
:1012F00000E0002050B900BF502080F31188BFF3F8
:101300004F8FBFF36F8F00BF00BFFEE74046BDE8C1
:10131000F0810000780000108C0000107C000010AC
:10132000700000108000001084000010001F4FF0BB
:1013300080730360001F21F001030360001F054B51
:10134000036014380260001F6FF00203036020384E
:10135000704700000911000801460A69D1E901300F
:101360009860D1E9010358605068884201D18868CB
:101370005060002008611068401E106010687047BF
:1013800000F1080141604FF0FF31816000F1080178
:10139000C160016100210160704700210161704757
:1013A00010B502460B685C1C0CB9106907E002F12D
:1013B000080000E04068446824689C42FAD9446808
:1013C0004C604C68A160886041600A611468641CCC
:1013D000146010BD42684A6093688B6093685960DE
:1013E0009160086103685B1C0360704700BF502078
:1013F00080F31188BFF34F8FBFF36F8F00BF0E488C
:101400000068401C0C49086008460068012812D199
:101410000A480068C0B208B9012000E0002050B9B5
:1014200000BF502080F31188BFF34F8FBFF36F8F41
:1014300000BF00BFFEE770476400001004ED00E04D
:101440000D48006850B900BF502080F31188BFF3E9
:101450004F8FBFF36F8F00BF00BFFEE706480068E5
:10146000401E054908600846006820B9002080F346
:10147000118800BF00BF70476400001070B50646B9
:101480003546002E44D0083D2C4622496068096844
:10149000084008B1012000E0002050B900BF5020F2
:1014A00080F31188BFF34F8FBFF36F8F00BF00BF72
:1014B000FEE7206808B9012000E0002050B900BF15
:1014C000502080F31188BFF34F8FBFF36F8F00BFA1
:1014D00000BFFEE70F49606809680840C0B1206896
:1014E000B0B90C49606809688843606000F07EF913
:1014F0000949606809680844074908602046FFF701
:10150000F7FB06480068401C0449086000F0EEFE46
:1015100070BD00008C0000107C00001088000010DE
:1015200000204FF0E02108618861064800684FF410
:101530007A71B0FBF1F0401E4FF0E02148610720C6
:10154000086170470000001070B5FEF7C9FE044640
:10155000102C16D304F1E02090F8F05315480078D1
:10156000854201DB012000E0002050B900BF50207F
:1015700080F31188BFF34F8FBFF36F8F00BF00BFA1
:10158000FEE70D48006800F4E0600C4909688842F5
:1015900001D8012000E0002050B900BF502080F3A6
:1015A0001188BFF34F8FBFF36F8F00BF00BFFEE7FF
:1015B00070BD0000680000100CED00E06C00001031
:1015C000024600200BE0084B53F8303033B9064B8D
:1015D00043F8301003EBC0035A6002E0401C0828B7
:1015E000F1D300BF70470000900000102DE9F041DA
:1015F00005460E4617462C46FFF7F8FE94F94400C0
:10160000401C10B9002084F8440094F94500401CA7
:1016100010B9002084F84500FFF712FFA06B28B92D
:101620003A46314604F1240000F076F82046FFF7F0
:1016300098FDBDE8F081000070B504460025D4B1E6
:101640001248006808B9012000E0002050B900BF2E
:10165000502080F31188BFF34F8FBFF36F8F00BF0F
:1016600000BFFEE700F0C2F800212046FFF7D6F8E1
:1016700000F03CFE05463DB94FF08050044908603B
:10168000BFF34F8FBFF36F8F70BD00004C00001091
:1016900004ED00E0034909680160034909684160FD
:1016A000704700003C000010280000100FE00421EB
:1016B0000748FEF786FF4FF47A70FFF7BDFF04215D
:1016C0000348FEF780FF4FF47A70FFF7B5FFEEE7AF
:1016D00000080240012001490860704738000010EE
:1016E00070B504460D4654B900BF502080F31188F0
:1016F000BFF34F8FBFF36F8F00BF00BFFEE70548FA
:10170000016818312046FFF74BFE01212846FFF7FC
:1017100085F870BD1400001070B505460E461446DD
:1017200055B900BF502080F31188BFF34F8FBFF32E
:101730006F8F00BF00BFFEE70648016818312846DA
:10174000FFF748FE0CB14FF0FF3621463046FFF759
:1017500065F870BD140000101CB51D4800210B4633
:101760008222CDE900101BA11C4800F02BFC04468E
:10177000012C02D100F03CFE0446012C15D100BF23
:10178000502080F31188BFF34F8FBFF36F8F00BFDE
:101790004FF0FF3012490860012012490860002014
:1017A0001149086000F070F810E0601C08B10120D9
:1017B00000E0002050B900BF502080F31188BFF333
:1017C0004F8FBFF36F8F00BF00BFFEE71CBD00004F
:1017D0004800001049444C4500000000790B000807
:1017E000440000103000001028000010024800687B
:1017F000401C0149086070474C0000101D480068FB
:1018000018B101201C49086032E000201A49086024
:101810001A480068B0FA80F0C0F11F0101EB8100A6
:10182000174A52F8200008B1012000E0002050B90A
:1018300000BF502080F31188BFF34F8FBFF36F8F2D
:1018400000BF00BFFEE701EB81020D4B03EB8200FE
:1018500042685268426000F108024368934202D134
:101860004268526842604268D268064B1A6000BF04
:10187000704700004C000010380000102C000010D1
:10188000D0000010140000101CB5524800685249E6
:10189000884201D0012000E0002050B900BF502054
:1018A00080F31188BFF34F8FBFF36F8F00BF00BF6E
:1018B000FEE7484800684849491E884201D0012097
:1018C00000E0002050B900BF502080F31188BFF322
:1018D0004F8FBFF36F8F00BF00BFFEE73F49084641
:1018E00000780190FF200A461070084600780090AA
:1018F0009DF8000000F0F0009DF80020904201D11A
:10190000012000E0002050B900BF502080F3118872
:10191000BFF34F8FBFF36F8F00BF00BFFEE79DF88F
:10192000000000F050002E4A107007202D4A106071
:1019300009E02C480068401E2A4A10609DF800000B
:101940004006000E00909DF8000000F08000802806
:10195000EFD024480068C0F10700042801D101201D
:1019600000E0002050B900BF502080F31188BFF381
:101970004F8FBFF36F8F00BF00BFFEE719480068AD
:101980000002184A10601046008800F4E060106001
:10199000124A019810700F482030006840F470001F
:1019A0000C49203108600846006840F0704008602B
:1019B000FFF7B6FD00200C490860FEF759FC0B4804
:1019C000006840F0404009490860FEF73DFC0020F7
:1019D0001CBD000000ED00E071C20F4100E400E01A
:1019E000680000106C0000106400001034EF00E08C
:1019F0002DE9F84305460E4690460DB1012000E062
:101A0000002050B900BF502080F31188BFF34F8FE2
:101A1000BFF36F8F00BF00BFFEE705FB06F71EB1E7
:101A2000B7FBF6F0A84201D1012000E0002050B938
:101A300000BF502080F31188BFF34F8FBFF36F8F2B
:101A400000BF00BFFEE707F15000FFF7C9FB0446E7
:101A50004CB1A14609F1500943464A463146284651
:101A60000094FFF79DF82046BDE8F88370B5054661
:101A70000E462C4654B900BF502080F31188BFF3A6
:101A80004F8FBFF36F8F00BF00BFFEE7FFF7AEFCC5
:101A9000D4E90F12206801FB0200A0600020A063BF
:101AA00020686060E06B401E226C216800FB021120
:101AB000E160FF2084F8440084F845009EB9206965
:101AC00008B9012000E00020A8B904F1100000F0DE
:101AD000C1FB80B14FF0805009490860BFF34F8FC0
:101AE000BFF36F8F07E004F11000FFF749FC04F12A
:101AF0002400FFF745FCFFF7A3FC012070BD0000A8
:101B000004ED00E02DE9FF4383B0064688461D46FC
:101B10004FF00009344654B900BF502080F31188BB
:101B2000BFF34F8FBFF36F8F00BF00BFFEE7B8F169
:101B3000000F01D1206C08B9012000E0002050B94D
:101B400000BF502080F31188BFF34F8FBFF36F8F1A
:101B500000BF00BFFEE7022D02D1E06B012801D1DA
:101B6000012000E0002050B900BF502080F3118810
:101B7000BFF34F8FBFF36F8F00BF00BFFEE700F0D2
:101B800051FA08B9059808B9012000E0002050B9C1
:101B900000BF502080F31188BFF34F8FBFF36F8FCA
:101BA00000BF00BFFEE700BFFFF720FCA06BE16BAA
:101BB000884201D3022D28D12A4641462046FEF70D
:101BC00040FF0746606A08B9012000E0002068B9BC
:101BD00004F1240000F03EFB88B14FF08050324900
:101BE0000860BFF34F8FBFF36F8F08E03FB14FF036
:101BF00080502D490860BFF34F8FBFF36F8FFFF701
:101C00001FFC012007B0BDE8F083059818B9FFF765
:101C100017FC0020F6E7B9F1000F04D101A8FFF787
:101C200039FD4FF00109FFF70BFCFFF7DFFDFFF770
:101C3000DDFB94F94400401C10B9002084F84400F6
:101C400094F94500401C10B9002084F84500FFF7C6
:101C5000F7FB05A901A800F06DF9F0B92046FFF7E0
:101C6000B4F8A0B104F110000599FFF739FD204642
:101C7000FFF777FA00F03AFB002895D14FF080503B
:101C800009490860BFF34F8FBFF36F8F8CE7204681
:101C9000FFF767FA00F02AFB86E72046FFF761FAB4
:101CA00000F024FB0020ADE704ED00E02DE9F84F43
:101CB00007468B4690461E463C4654B900BF50200E
:101CC00080F31188BFF34F8FBFF36F8F00BF00BF4A
:101CD000FEE7BBF1000F01D1206C08B9012000E044
:101CE000002050B900BF502080F31188BFF34F8F00
:101CF000BFF36F8F00BF00BFFEE7022E02D1E06B83
:101D0000012801D1012000E0002050B900BF50207F
:101D100080F31188BFF34F8FBFF36F8F00BF00BFF9
:101D2000FEE7FFF711FC00BF5021EFF3118081F3B4
:101D30001188BFF34F8FBFF36F8F00BF0546A06BB5
:101D4000E16B884201D3022E37D194F945A0A06BF4
:101D50000090324659462046FEF773FE0AF1010014
:101D600088B9606A08B9012000E0002050B904F188
:101D7000240000F06FFA28B1B8F1000F02D0012062
:101D8000C8F8000016E0BAF17F0F01D0012000E092
:101D9000002050B900BF502080F31188BFF34F8F4F
:101DA000BFF36F8F00BF00BFFEE70AF1010040B232
:101DB00084F845004FF0010901E04FF0000900BF31
:101DC00085F3118800BF4846BDE8F88F2DE9F7413B
:101DD00083B005460E464FF000082C4654B900BFAC
:101DE000502080F31188BFF34F8FBFF36F8F00BF78
:101DF00000BFFEE70EB9206C08B9012000E000200A
:101E000050B900BF502080F31188BFF34F8FBFF34C
:101E10006F8F00BF00BFFEE700F004F908B9059816
:101E200008B9012000E0002050B900BF502080F325
:101E30001188BFF34F8FBFF36F8F00BF00BFFEE766
:101E400000BFFFF7D3FAA76BF7B131462046FEF784
:101E5000E3FD781EA063206908B9012000E000209E
:101E600060B904F1100000F0F5F938B14FF080507E
:101E70002F490860BFF34F8FBFF36F8FFFF7E0FA72
:101E8000012006B0BDE8F081059818B9FFF7D8FA2F
:101E90000020F6E7B8F1000F04D101A8FFF7FAFB24
:101EA0004FF00108FFF7CCFAFFF7A0FCFFF79EFA0E
:101EB00094F94400401C10B9002084F8440094F9BF
:101EC0004500401C10B9002084F84500FFF7B8FA1F
:101ED00005A901A800F02EF8F0B92046FEF768FF2A
:101EE000A0B104F124000599FFF7FAFB2046FFF7A3
:101EF00038F900F0FBF90028A3D14FF080500C49CD
:101F00000860BFF34F8FBFF36F8F9AE72046FFF74C
:101F100028F900F0EBF994E72046FFF722F900F0EA
:101F2000E5F92046FEF744FF00288AD00020A8E704
:101F300004ED00E070B505460C4655B900BF5020D1
:101F400080F31188BFF34F8FBFF36F8F00BF00BFC7
:101F5000FEE754B900BF502080F31188BFF34F8FC4
:101F6000BFF36F8F00BF00BFFEE7FFF73FFA1348D4
:101F700002686868131A2068401C08B9002619E036
:101F80000F4928680968884206D06868904203D8DB
:101F90000126002020600DE02068984207D92068C3
:101FA000C01A20602846FFF775FB002602E00020DB
:101FB00020600126FFF744FA304670BD280000106B
:101FC0003C0000102DE9FF4F85B08046894617463A
:101FD000DDE912ABB800FFF703F9064656B1582009
:101FE000FFF7FEF804460CB1266304E03046FFF725
:101FF00045FA00E000247CB10020CDE900ABCDE93A
:1020000002403A4649464046089BFEF7DEFD204620
:10201000FEF750FC012501E04FF0FF35284609B0DE
:10202000BDE8F08F0549096809B9012005E00449B8
:10203000096809B9022000E0002070473000001054
:102040004C0000100149086870470000280000108B
:102050002DE9F0414FF000084448006800287CD189
:1020600043480068451C4248056015BB414800686C
:10207000006808B9012000E0002050B900BF5020DE
:1020800080F31188BFF34F8FBFF36F8F00BF00BF86
:10209000FEE738480768384800683649086036481F
:1020A000076036480068401C34490860FEF7ACFF02
:1020B00000BF3348006885423CD300BF2D4800680C
:1020C000006808B9012000E0002020B14FF0FF3087
:1020D0002B4908602DE027480068C068C46866681E
:1020E000B54202D22648066023E0201DFFF734F9EE
:1020F000A06A18B104F11800FFF72EF994F82C101B
:10210000012088401F49096808431E490860E16AA8
:1021100001EB81011C4A02EB8100211DFFF75AF9F6
:102120001A49E06A0968C96A8842C7D34FF00108B2
:10213000C4E700BF15480068C06A00EB8000124980
:1021400051F82000012801D94FF00108104800681B
:1021500008B14FF0010805E0FFE70E480068401C99
:102160000C4908604046BDE8F08100004C000010BA
:1021700028000010180000101C0000103C00001087
:10218000440000102C000010D000001014000010BB
:10219000380000103400001070B505462C460026AB
:1021A000002D4ED028480068844201D1012000E073
:1021B000002050B900BF502080F31188BFF34F8F2B
:1021C000BFF36F8F00BF00BFFEE7E06C50B900BFE8
:1021D000502080F31188BFF34F8FBFF36F8F00BF84
:1021E00000BFFEE7E06C401EE064A16CE06A88423C
:1021F00027D0E06C28BB201DFFF7AEF840B994F85B
:102200002C10012088401149096881430F48016062
:10221000A06CE062E06AC0F10500A06194F82C10A7
:102220000120884009490968084308490860E16AB3
:1022300001EB8101064A02EB8100211DFFF7CAF87C
:102240000126304670BD0000140000102C00001064
:10225000D000001070B50646F068C46854B900BFDD
:10226000502080F31188BFF34F8FBFF36F8F00BFF3
:1022700000BFFEE704F11800FFF76EF8154800688C
:10228000A8B9201DFFF768F894F82C1001208840A9
:1022900011490968084310490860E16A01EB8101AE
:1022A0000E4A02EB8100211DFFF794F804E004F1CF
:1022B00018010B48FFF78EF80A49E06A0968C96AF5
:1022C000884204D9012501200749086000E0002563
:1022D000284670BD4C0000102C000010D0000010EB
:1022E0005C010010140000103800001070B50024CC
:1022F00000263648006850B900BF502080F311888E
:10230000BFF34F8FBFF36F8F00BF00BFFEE7FFF734
:102310006DF82E480068401E2C4908600846006889
:1023200000284FD12A48006800284BD024E02948D3
:10233000C068C46804F11800FFF70EF8201DFFF70D
:102340000BF894F82C1001208840234909680843B1
:1023500021490860E16A01EB8101204A02EB81001A
:10236000211DFFF737F81E49E06A0968C96A8842EB
:1023700002D301201B4908601648006808B90120F3
:1023800000E000200028D2D00CB1FEF73DFE164838
:10239000056865B100BFFFF75BFE10B10120114970
:1023A00008606D1E002DF6D100200F4908600D4811
:1023B000006838B1012630070C490860BFF34F8F21
:1023C000BFF36F8FFFF73CF8304670BD4C00001034
:1023D000240000105C0100102C000010D000001040
:1023E00014000010380000103400001004ED00E06C
:1023F0001CB50024FEF7BAFA0E48006858B10E4822
:10240000022100234FF48272CDE900100BA10D4888
:10241000FFF7D8FD044654B900BF502080F311885F
:10242000BFF34F8FBFF36F8F00BF00BFFEE72046A3
:102430001CBD0000580000105C000010546D72209C
:1024400053766300491100082DE9FE4304460D460A
:1024500016461F46DDF828804FF0000954B900BF2A
:10246000502080F31188BFF34F8FBFF36F8F00BFF1
:1024700000BFFEE71448006810B30095019602946F
:10248000062D15DAFFF7CEFD022808D100234246BB
:1024900069460D480068FFF735FB814610E00023D0
:1024A0001A46694608480068FFF72CFB814607E09A
:1024B00000233A46694604480068FFF7F7FB814667
:1024C0004846BDE8FE830000580000104FF0407001
:1024D000E1EE100A70470000082500080000001017
:1024E00090000000C401000808250008000000203A
:1024F000002C0100E0010008982500089000001061
:1025000090070000E0010008007A030A00000000C4
:102510000000000001020304060708090000000093
:1025200000000000000000000000000000000000AB
:10253000000000000000000000000000000000009B
:10254000000000000000000000000000000000008B
:10255000000000000000000000000000000000007B
:10256000000000000000000000000000AAAAAAAAC3
:10257000000000000000000000000000000000005B
:10258000000000000000000000000000000000004B
:08259000000000000000000043
:040000050800018965
:00000001FF
